{
  "contractName": "Voting",
  "abi": [
    {
      "inputs": [],
      "stateMutability": "nonpayable",
      "type": "constructor"
    },
    {
      "anonymous": false,
      "inputs": [
        {
          "indexed": true,
          "internalType": "bytes32",
          "name": "electionID",
          "type": "bytes32"
        }
      ],
      "name": "ElectionEnded",
      "type": "event"
    },
    {
      "anonymous": false,
      "inputs": [
        {
          "indexed": true,
          "internalType": "bytes32",
          "name": "ssn",
          "type": "bytes32"
        },
        {
          "indexed": true,
          "internalType": "uint256",
          "name": "optionIndex",
          "type": "uint256"
        }
      ],
      "name": "VoteCast",
      "type": "event"
    },
    {
      "anonymous": false,
      "inputs": [
        {
          "indexed": true,
          "internalType": "bytes32",
          "name": "ssn",
          "type": "bytes32"
        },
        {
          "indexed": false,
          "internalType": "bytes32",
          "name": "name",
          "type": "bytes32"
        },
        {
          "indexed": false,
          "internalType": "string",
          "name": "dateOfBirth",
          "type": "string"
        }
      ],
      "name": "VoterRegistered",
      "type": "event"
    },
    {
      "inputs": [],
      "name": "candidate1",
      "outputs": [
        {
          "internalType": "string",
          "name": "",
          "type": "string"
        }
      ],
      "stateMutability": "view",
      "type": "function",
      "constant": true
    },
    {
      "inputs": [],
      "name": "candidate1Votes",
      "outputs": [
        {
          "internalType": "uint256",
          "name": "",
          "type": "uint256"
        }
      ],
      "stateMutability": "view",
      "type": "function",
      "constant": true
    },
    {
      "inputs": [],
      "name": "candidate2",
      "outputs": [
        {
          "internalType": "string",
          "name": "",
          "type": "string"
        }
      ],
      "stateMutability": "view",
      "type": "function",
      "constant": true
    },
    {
      "inputs": [],
      "name": "candidate2Votes",
      "outputs": [
        {
          "internalType": "uint256",
          "name": "",
          "type": "uint256"
        }
      ],
      "stateMutability": "view",
      "type": "function",
      "constant": true
    },
    {
      "inputs": [],
      "name": "candidate3",
      "outputs": [
        {
          "internalType": "string",
          "name": "",
          "type": "string"
        }
      ],
      "stateMutability": "view",
      "type": "function",
      "constant": true
    },
    {
      "inputs": [],
      "name": "candidate3Votes",
      "outputs": [
        {
          "internalType": "uint256",
          "name": "",
          "type": "uint256"
        }
      ],
      "stateMutability": "view",
      "type": "function",
      "constant": true
    },
    {
      "inputs": [],
      "name": "electionName",
      "outputs": [
        {
          "internalType": "string",
          "name": "",
          "type": "string"
        }
      ],
      "stateMutability": "view",
      "type": "function",
      "constant": true
    },
    {
      "inputs": [
        {
          "internalType": "bytes32",
          "name": "",
          "type": "bytes32"
        }
      ],
      "name": "voters",
      "outputs": [
        {
          "internalType": "bytes32",
          "name": "name",
          "type": "bytes32"
        },
        {
          "internalType": "string",
          "name": "dateOfBirth",
          "type": "string"
        },
        {
          "internalType": "bytes32",
          "name": "ssn",
          "type": "bytes32"
        },
        {
          "internalType": "bool",
          "name": "hasVoted",
          "type": "bool"
        }
      ],
      "stateMutability": "view",
      "type": "function",
      "constant": true
    },
    {
      "inputs": [
        {
          "internalType": "string",
          "name": "_name",
          "type": "string"
        },
        {
          "internalType": "string",
          "name": "_dateOfBirth",
          "type": "string"
        },
        {
          "internalType": "string",
          "name": "_ssn",
          "type": "string"
        }
      ],
      "name": "register",
      "outputs": [],
      "stateMutability": "nonpayable",
      "type": "function"
    },
    {
      "inputs": [
        {
          "internalType": "string",
          "name": "_ssn",
          "type": "string"
        },
        {
          "internalType": "uint256",
          "name": "_optionIndex",
          "type": "uint256"
        }
      ],
      "name": "vote",
      "outputs": [],
      "stateMutability": "nonpayable",
      "type": "function"
    },
    {
      "inputs": [],
      "name": "getElectionResults",
      "outputs": [
        {
          "internalType": "uint256",
          "name": "",
          "type": "uint256"
        },
        {
          "internalType": "uint256",
          "name": "",
          "type": "uint256"
        },
        {
          "internalType": "uint256",
          "name": "",
          "type": "uint256"
        }
      ],
      "stateMutability": "view",
      "type": "function",
      "constant": true
    },
    {
      "inputs": [],
      "name": "getElectionCandidates",
      "outputs": [
        {
          "internalType": "string",
          "name": "",
          "type": "string"
        },
        {
          "internalType": "string",
          "name": "",
          "type": "string"
        },
        {
          "internalType": "string",
          "name": "",
          "type": "string"
        }
      ],
      "stateMutability": "view",
      "type": "function",
      "constant": true
    },
    {
      "inputs": [
        {
          "internalType": "string",
          "name": "_ssn",
          "type": "string"
        }
      ],
      "name": "hasRegistered",
      "outputs": [
        {
          "internalType": "bool",
          "name": "",
          "type": "bool"
        }
      ],
      "stateMutability": "view",
      "type": "function",
      "constant": true
    },
    {
      "inputs": [],
      "name": "getElectionName",
      "outputs": [
        {
          "internalType": "string",
          "name": "",
          "type": "string"
        }
      ],
      "stateMutability": "view",
      "type": "function",
      "constant": true
    },
    {
      "inputs": [
        {
          "internalType": "string",
          "name": "_ssn",
          "type": "string"
        }
      ],
      "name": "hasVoted",
      "outputs": [
        {
          "internalType": "bool",
          "name": "",
          "type": "bool"
        }
      ],
      "stateMutability": "view",
      "type": "function",
      "constant": true
    }
  ],
  "bytecode": "0x60806040523480156200001157600080fd5b506040518060400160405280601d81526020017f555320507265736964656e7469616c20456c656374696f6e2032303233000000815250600190805190602001906200005f92919062000168565b506040518060400160405280600981526020017f4a6f6520426964656e000000000000000000000000000000000000000000000081525060029080519060200190620000ad92919062000168565b506040518060400160405280600c81526020017f446f6e616c64205472756d70000000000000000000000000000000000000000081525060039080519060200190620000fb92919062000168565b506040518060400160405280600a81526020017f4b616e7965205765737400000000000000000000000000000000000000000000815250600490805190602001906200014992919062000168565b506000600581905550600060068190555060006007819055506200027d565b828054620001769062000218565b90600052602060002090601f0160209004810192826200019a5760008555620001e6565b82601f10620001b557805160ff1916838001178555620001e6565b82800160010185558215620001e6579182015b82811115620001e5578251825591602001919060010190620001c8565b5b509050620001f59190620001f9565b5090565b5b8082111562000214576000816000905550600101620001fa565b5090565b600060028204905060018216806200023157607f821691505b602082108114156200024857620002476200024e565b5b50919050565b7f4e487b7100000000000000000000000000000000000000000000000000000000600052602260045260246000fd5b611500806200028d6000396000f3fe608060405234801561001057600080fd5b50600436106100f55760003560e01c8063775a1d8f11610097578063b8397d0811610066578063b8397d0814610279578063be1e9f3e14610297578063df972163146102b7578063eccf1f10146102d5576100f5565b8063775a1d8f1461020357806385e8e7a714610221578063973918ce1461023f578063a63858031461025d576100f5565b806339bfeae3116100d357806339bfeae3146101695780634cd08d03146101995780635571f59f146101b55780635b57014c146101e5576100f5565b806301243fce146100fa57806330e7a79c1461011857806337f91f2314610136575b600080fd5b6101026102f5565b60405161010f9190611159565b60405180910390f35b610120610383565b60405161012d9190611159565b60405180910390f35b610150600480360381019061014b9190610dbf565b610415565b604051610160949392919061110d565b60405180910390f35b610183600480360381019061017e9190610de8565b6104da565b60405161019091906110c2565b60405180910390f35b6101b360048036038101906101ae9190610e29565b610531565b005b6101cf60048036038101906101ca9190610de8565b6106aa565b6040516101dc91906110c2565b60405180910390f35b6101ed6106f6565b6040516101fa9190611159565b60405180910390f35b61020b610784565b6040516102189190611247565b60405180910390f35b61022961078a565b6040516102369190611159565b60405180910390f35b610247610818565b6040516102549190611247565b60405180910390f35b61027760048036038101906102729190610ec0565b61081e565b005b610281610a23565b60405161028e9190611159565b60405180910390f35b61029f610ab1565b6040516102ae9392919061117b565b60405180910390f35b6102bf610c6b565b6040516102cc9190611247565b60405180910390f35b6102dd610c71565b6040516102ec93929190611262565b60405180910390f35b6002805461030290611383565b80601f016020809104026020016040519081016040528092919081815260200182805461032e90611383565b801561037b5780601f106103505761010080835404028352916020019161037b565b820191906000526020600020905b81548152906001019060200180831161035e57829003601f168201915b505050505081565b60606001805461039290611383565b80601f01602080910402602001604051908101604052809291908181526020018280546103be90611383565b801561040b5780601f106103e05761010080835404028352916020019161040b565b820191906000526020600020905b8154815290600101906020018083116103ee57829003601f168201915b5050505050905090565b600060205280600052604060002060009150905080600001549080600101805461043e90611383565b80601f016020809104026020016040519081016040528092919081815260200182805461046a90611383565b80156104b75780601f1061048c576101008083540402835291602001916104b7565b820191906000526020600020905b81548152906001019060200180831161049a57829003601f168201915b5050505050908060020154908060030160009054906101000a900460ff16905084565b600080826040516020016104ee91906110ab565b60405160208183030381529060405280519060200120905060008082815260200190815260200160002060030160009054906101000a900460ff16915050919050565b60008360405160200161054491906110ab565b60405160208183030381529060405280519060200120905060008260405160200161056f91906110ab565b604051602081830303815290604052805190602001209050806000808381526020019081526020016000206002015414156105df576040517f08c379a00000000000000000000000000000000000000000000000000000000081526004016105d6906111c7565b60405180910390fd5b60405180608001604052808381526020018581526020018281526020016000151581525060008083815260200190815260200160002060008201518160000155602082015181600101908051906020019061063b929190610c8a565b506040820151816002015560608201518160030160006101000a81548160ff021916908315150217905550905050807f92074e010c5aed4ec9b49b1b93d51d3bfece70148a941fb9a3eda3c72cc33cb3838660405161069b9291906110dd565b60405180910390a25050505050565b600080826040516020016106be91906110ab565b604051602081830303815290604052805190602001209050806000808381526020019081526020016000206002015414915050919050565b6003805461070390611383565b80601f016020809104026020016040519081016040528092919081815260200182805461072f90611383565b801561077c5780601f106107515761010080835404028352916020019161077c565b820191906000526020600020905b81548152906001019060200180831161075f57829003601f168201915b505050505081565b60065481565b6001805461079790611383565b80601f01602080910402602001604051908101604052809291908181526020018280546107c390611383565b80156108105780601f106107e557610100808354040283529160200191610810565b820191906000526020600020905b8154815290600101906020018083116107f357829003601f168201915b505050505081565b60075481565b60008260405160200161083191906110ab565b6040516020818303038152906040528051906020012090508060008083815260200190815260200160002060020154146108a0576040517f08c379a000000000000000000000000000000000000000000000000000000000815260040161089790611207565b60405180910390fd5b60008082815260200190815260200160002060030160009054906101000a900460ff1615610903576040517f08c379a00000000000000000000000000000000000000000000000000000000081526004016108fa906111e7565b60405180910390fd5b60018214806109125750600282145b8061091d5750600382145b61095c576040517f08c379a000000000000000000000000000000000000000000000000000000000815260040161095390611227565b60405180910390fd5b600160008083815260200190815260200160002060030160006101000a81548160ff02191690831515021790555060018214156109b057600560008154809291906109a6906113b5565b91905055506109f0565b60028214156109d657600660008154809291906109cc906113b5565b91905055506109ef565b600760008154809291906109e9906113b5565b91905055505b5b81817fd10f6697fe785cf6ab300b0a28e7b2403b8742966ec5535806af5b24613611a460405160405180910390a3505050565b60048054610a3090611383565b80601f0160208091040260200160405190810160405280929190818152602001828054610a5c90611383565b8015610aa95780601f10610a7e57610100808354040283529160200191610aa9565b820191906000526020600020905b815481529060010190602001808311610a8c57829003601f168201915b505050505081565b6060806060600260036004828054610ac890611383565b80601f0160208091040260200160405190810160405280929190818152602001828054610af490611383565b8015610b415780601f10610b1657610100808354040283529160200191610b41565b820191906000526020600020905b815481529060010190602001808311610b2457829003601f168201915b50505050509250818054610b5490611383565b80601f0160208091040260200160405190810160405280929190818152602001828054610b8090611383565b8015610bcd5780601f10610ba257610100808354040283529160200191610bcd565b820191906000526020600020905b815481529060010190602001808311610bb057829003601f168201915b50505050509150808054610be090611383565b80601f0160208091040260200160405190810160405280929190818152602001828054610c0c90611383565b8015610c595780601f10610c2e57610100808354040283529160200191610c59565b820191906000526020600020905b815481529060010190602001808311610c3c57829003601f168201915b50505050509050925092509250909192565b60055481565b6000806000600554600654600754925092509250909192565b828054610c9690611383565b90600052602060002090601f016020900481019282610cb85760008555610cff565b82601f10610cd157805160ff1916838001178555610cff565b82800160010185558215610cff579182015b82811115610cfe578251825591602001919060010190610ce3565b5b509050610d0c9190610d10565b5090565b5b80821115610d29576000816000905550600101610d11565b5090565b6000610d40610d3b846112ca565b611299565b905082815260208101848484011115610d5857600080fd5b610d63848285611341565b509392505050565b600081359050610d7a8161149c565b92915050565b600082601f830112610d9157600080fd5b8135610da1848260208601610d2d565b91505092915050565b600081359050610db9816114b3565b92915050565b600060208284031215610dd157600080fd5b6000610ddf84828501610d6b565b91505092915050565b600060208284031215610dfa57600080fd5b600082013567ffffffffffffffff811115610e1457600080fd5b610e2084828501610d80565b91505092915050565b600080600060608486031215610e3e57600080fd5b600084013567ffffffffffffffff811115610e5857600080fd5b610e6486828701610d80565b935050602084013567ffffffffffffffff811115610e8157600080fd5b610e8d86828701610d80565b925050604084013567ffffffffffffffff811115610eaa57600080fd5b610eb686828701610d80565b9150509250925092565b60008060408385031215610ed357600080fd5b600083013567ffffffffffffffff811115610eed57600080fd5b610ef985828601610d80565b9250506020610f0a85828601610daa565b9150509250929050565b610f1d81611321565b82525050565b610f2c8161132d565b82525050565b6000610f3d826112fa565b610f478185611305565b9350610f57818560208601611350565b610f608161148b565b840191505092915050565b6000610f76826112fa565b610f808185611316565b9350610f90818560208601611350565b80840191505092915050565b6000610fa9601983611305565b91507f566f74657220616c726561647920726567697374657265642e000000000000006000830152602082019050919050565b6000610fe9601883611305565b91507f566f7465722068617320616c726561647920766f7465642e00000000000000006000830152602082019050919050565b6000611029601583611305565b91507f566f746572206e6f7420726567697374657265642e00000000000000000000006000830152602082019050919050565b6000611069601283611305565b91507f496e76616c69642063616e6469646174652e00000000000000000000000000006000830152602082019050919050565b6110a581611337565b82525050565b60006110b78284610f6b565b915081905092915050565b60006020820190506110d76000830184610f14565b92915050565b60006040820190506110f26000830185610f23565b81810360208301526111048184610f32565b90509392505050565b60006080820190506111226000830187610f23565b81810360208301526111348186610f32565b90506111436040830185610f23565b6111506060830184610f14565b95945050505050565b600060208201905081810360008301526111738184610f32565b905092915050565b600060608201905081810360008301526111958186610f32565b905081810360208301526111a98185610f32565b905081810360408301526111bd8184610f32565b9050949350505050565b600060208201905081810360008301526111e081610f9c565b9050919050565b6000602082019050818103600083015261120081610fdc565b9050919050565b600060208201905081810360008301526112208161101c565b9050919050565b600060208201905081810360008301526112408161105c565b9050919050565b600060208201905061125c600083018461109c565b92915050565b6000606082019050611277600083018661109c565b611284602083018561109c565b611291604083018461109c565b949350505050565b6000604051905081810181811067ffffffffffffffff821117156112c0576112bf61145c565b5b8060405250919050565b600067ffffffffffffffff8211156112e5576112e461145c565b5b601f19601f8301169050602081019050919050565b600081519050919050565b600082825260208201905092915050565b600081905092915050565b60008115159050919050565b6000819050919050565b6000819050919050565b82818337600083830152505050565b60005b8381101561136e578082015181840152602081019050611353565b8381111561137d576000848401525b50505050565b6000600282049050600182168061139b57607f821691505b602082108114156113af576113ae61142d565b5b50919050565b60006113c082611337565b91507fffffffffffffffffffffffffffffffffffffffffffffffffffffffffffffffff8214156113f3576113f26113fe565b5b600182019050919050565b7f4e487b7100000000000000000000000000000000000000000000000000000000600052601160045260246000fd5b7f4e487b7100000000000000000000000000000000000000000000000000000000600052602260045260246000fd5b7f4e487b7100000000000000000000000000000000000000000000000000000000600052604160045260246000fd5b6000601f19601f8301169050919050565b6114a58161132d565b81146114b057600080fd5b50565b6114bc81611337565b81146114c757600080fd5b5056fea2646970667358221220eefcb765ddd5aeea252465da0018b86f8da49a20c02ff6679af6157c9a62393f64736f6c63430008000033",
  "immutableReferences": {},
  "source": "// SPDX-License-Identifier: MIT\npragma solidity ^0.8.0;\n\ncontract Voting {\n    struct Voter {\n        bytes32 name;\n        string dateOfBirth;\n        bytes32 ssn;\n        bool hasVoted;\n    }\n\n    mapping(bytes32 => Voter) public voters;\n    string public electionName;\n    string public candidate1;\n    string public candidate2;\n    string public candidate3;\n    uint public candidate1Votes;\n    uint public candidate2Votes;\n    uint public candidate3Votes;\n\n    event VoterRegistered(\n        bytes32 indexed ssn,\n        bytes32 name,\n        string dateOfBirth\n    );\n\n    event VoteCast(bytes32 indexed ssn, uint indexed optionIndex);\n    event ElectionEnded(bytes32 indexed electionID);\n\n    constructor() {\n        electionName = \"US Presidential Election 2023\";\n        candidate1 = \"Joe Biden\";\n        candidate2 = \"Donald Trump\";\n        candidate3 = \"Kanye West\";\n\n        candidate1Votes = 0;\n        candidate2Votes = 0;\n        candidate3Votes = 0;\n    }\n\n    function register(\n        string memory _name,\n        string memory _dateOfBirth,\n        string memory _ssn\n    ) public {\n        bytes32 hashedName = keccak256(abi.encodePacked(_name));\n        bytes32 hashedSSN = keccak256(abi.encodePacked(_ssn));\n        require(\n            voters[hashedSSN].ssn != hashedSSN,\n            \"Voter already registered.\"\n        );\n        voters[hashedSSN] = Voter(hashedName, _dateOfBirth, hashedSSN, false);\n        emit VoterRegistered(hashedSSN, hashedName, _dateOfBirth);\n    }\n\n    function vote(string memory _ssn, uint _optionIndex) public {\n        bytes32 hashedSSN = keccak256(abi.encodePacked(_ssn));\n        require(voters[hashedSSN].ssn == hashedSSN, \"Voter not registered.\");\n        require(!voters[hashedSSN].hasVoted, \"Voter has already voted.\");\n        require(\n            _optionIndex == 1 || _optionIndex == 2 || _optionIndex == 3,\n            \"Invalid candidate.\"\n        );\n        voters[hashedSSN].hasVoted = true;\n        if (_optionIndex == 1) {\n            candidate1Votes++;\n        } else if (_optionIndex == 2) {\n            candidate2Votes++;\n        } else {\n            candidate3Votes++;\n        }\n        emit VoteCast(hashedSSN, _optionIndex);\n    }\n\n    function getElectionResults() public view returns (uint, uint, uint) {\n        return (candidate1Votes, candidate2Votes, candidate3Votes);\n    }\n\n    function getElectionCandidates()\n        public\n        view\n        returns (string memory, string memory, string memory)\n    {\n        return (candidate1, candidate2, candidate3);\n    }\n\n    function hasRegistered(string memory _ssn) public view returns (bool) {\n        bytes32 hashedSSN = keccak256(abi.encodePacked(_ssn));\n        return voters[hashedSSN].ssn == hashedSSN;\n    }\n\n    function getElectionName() public view returns (string memory) {\n        return electionName;\n    }\n\n    function hasVoted(string memory _ssn) public view returns (bool) {\n        bytes32 hashedSSN = keccak256(abi.encodePacked(_ssn));\n        return voters[hashedSSN].hasVoted;\n    }\n}",
  "sourcePath": "/Users/sriyansrauniyar/Desktop/Course Files/Sixth Semester/COS 471/cos471FinalProject/truffleproject/contracts/Voting.sol",
  "compiler": {
    "name": "solc",
    "version": "0.8.0+commit.c7dfd78e.Emscripten.clang"
  },
  "schemaVersion": "3.4.13",
  "updatedAt": "2023-05-09T22:56:25.140Z",
  "networkType": "ethereum",
  "devdoc": {
    "kind": "dev",
    "methods": {},
    "version": 1
  },
  "userdoc": {
    "kind": "user",
    "methods": {},
    "version": 1
  }
}