{
  "contractName": "Voting",
  "abi": [
    {
      "inputs": [],
      "stateMutability": "nonpayable",
      "type": "constructor"
    },
    {
      "anonymous": false,
      "inputs": [
        {
          "indexed": true,
          "internalType": "bytes32",
          "name": "electionID",
          "type": "bytes32"
        }
      ],
      "name": "ElectionEnded",
      "type": "event"
    },
    {
      "anonymous": false,
      "inputs": [
        {
          "indexed": true,
          "internalType": "bytes32",
          "name": "ssn",
          "type": "bytes32"
        },
        {
          "indexed": true,
          "internalType": "uint256",
          "name": "optionIndex",
          "type": "uint256"
        }
      ],
      "name": "VoteCast",
      "type": "event"
    },
    {
      "anonymous": false,
      "inputs": [
        {
          "indexed": true,
          "internalType": "bytes32",
          "name": "ssn",
          "type": "bytes32"
        },
        {
          "indexed": false,
          "internalType": "bytes32",
          "name": "name",
          "type": "bytes32"
        },
        {
          "indexed": false,
          "internalType": "string",
          "name": "dateOfBirth",
          "type": "string"
        }
      ],
      "name": "VoterRegistered",
      "type": "event"
    },
    {
      "inputs": [],
      "name": "candidate1",
      "outputs": [
        {
          "internalType": "string",
          "name": "",
          "type": "string"
        }
      ],
      "stateMutability": "view",
      "type": "function",
      "constant": true
    },
    {
      "inputs": [],
      "name": "candidate1Votes",
      "outputs": [
        {
          "internalType": "uint256",
          "name": "",
          "type": "uint256"
        }
      ],
      "stateMutability": "view",
      "type": "function",
      "constant": true
    },
    {
      "inputs": [],
      "name": "candidate2",
      "outputs": [
        {
          "internalType": "string",
          "name": "",
          "type": "string"
        }
      ],
      "stateMutability": "view",
      "type": "function",
      "constant": true
    },
    {
      "inputs": [],
      "name": "candidate2Votes",
      "outputs": [
        {
          "internalType": "uint256",
          "name": "",
          "type": "uint256"
        }
      ],
      "stateMutability": "view",
      "type": "function",
      "constant": true
    },
    {
      "inputs": [],
      "name": "candidate3",
      "outputs": [
        {
          "internalType": "string",
          "name": "",
          "type": "string"
        }
      ],
      "stateMutability": "view",
      "type": "function",
      "constant": true
    },
    {
      "inputs": [],
      "name": "candidate3Votes",
      "outputs": [
        {
          "internalType": "uint256",
          "name": "",
          "type": "uint256"
        }
      ],
      "stateMutability": "view",
      "type": "function",
      "constant": true
    },
    {
      "inputs": [],
      "name": "electionName",
      "outputs": [
        {
          "internalType": "string",
          "name": "",
          "type": "string"
        }
      ],
      "stateMutability": "view",
      "type": "function",
      "constant": true
    },
    {
      "inputs": [
        {
          "internalType": "bytes32",
          "name": "",
          "type": "bytes32"
        }
      ],
      "name": "voters",
      "outputs": [
        {
          "internalType": "bytes32",
          "name": "name",
          "type": "bytes32"
        },
        {
          "internalType": "string",
          "name": "dateOfBirth",
          "type": "string"
        },
        {
          "internalType": "bytes32",
          "name": "ssn",
          "type": "bytes32"
        },
        {
          "internalType": "bool",
          "name": "hasVoted",
          "type": "bool"
        }
      ],
      "stateMutability": "view",
      "type": "function",
      "constant": true
    },
    {
      "inputs": [
        {
          "internalType": "string",
          "name": "_name",
          "type": "string"
        },
        {
          "internalType": "string",
          "name": "_dateOfBirth",
          "type": "string"
        },
        {
          "internalType": "string",
          "name": "_ssn",
          "type": "string"
        }
      ],
      "name": "register",
      "outputs": [],
      "stateMutability": "nonpayable",
      "type": "function"
    },
    {
      "inputs": [
        {
          "internalType": "string",
          "name": "_ssn",
          "type": "string"
        },
        {
          "internalType": "uint256",
          "name": "_optionIndex",
          "type": "uint256"
        }
      ],
      "name": "vote",
      "outputs": [],
      "stateMutability": "nonpayable",
      "type": "function"
    },
    {
      "inputs": [],
      "name": "getElectionResults",
      "outputs": [
        {
          "internalType": "uint256",
          "name": "",
          "type": "uint256"
        },
        {
          "internalType": "uint256",
          "name": "",
          "type": "uint256"
        },
        {
          "internalType": "uint256",
          "name": "",
          "type": "uint256"
        }
      ],
      "stateMutability": "view",
      "type": "function",
      "constant": true
    },
    {
      "inputs": [],
      "name": "getElectionCandidates",
      "outputs": [
        {
          "internalType": "string",
          "name": "",
          "type": "string"
        },
        {
          "internalType": "string",
          "name": "",
          "type": "string"
        },
        {
          "internalType": "string",
          "name": "",
          "type": "string"
        }
      ],
      "stateMutability": "view",
      "type": "function",
      "constant": true
    },
    {
      "inputs": [
        {
          "internalType": "string",
          "name": "_ssn",
          "type": "string"
        }
      ],
      "name": "hasRegistered",
      "outputs": [
        {
          "internalType": "bool",
          "name": "",
          "type": "bool"
        }
      ],
      "stateMutability": "view",
      "type": "function",
      "constant": true
    },
    {
      "inputs": [],
      "name": "getElectionName",
      "outputs": [
        {
          "internalType": "string",
          "name": "",
          "type": "string"
        }
      ],
      "stateMutability": "view",
      "type": "function",
      "constant": true
    }
  ],
  "bytecode": "0x60806040523480156200001157600080fd5b506040518060400160405280601081526020017f4578616d706c6520456c656374696f6e00000000000000000000000000000000815250600190805190602001906200005f92919062000168565b506040518060400160405280600b81526020017f43616e646964617465204100000000000000000000000000000000000000000081525060029080519060200190620000ad92919062000168565b506040518060400160405280600b81526020017f43616e646964617465204200000000000000000000000000000000000000000081525060039080519060200190620000fb92919062000168565b506040518060400160405280600b81526020017f43616e6469646174652043000000000000000000000000000000000000000000815250600490805190602001906200014992919062000168565b506000600581905550600060068190555060006007819055506200027d565b828054620001769062000218565b90600052602060002090601f0160209004810192826200019a5760008555620001e6565b82601f10620001b557805160ff1916838001178555620001e6565b82800160010185558215620001e6579182015b82811115620001e5578251825591602001919060010190620001c8565b5b509050620001f59190620001f9565b5090565b5b8082111562000214576000816000905550600101620001fa565b5090565b600060028204905060018216806200023157607f821691505b602082108114156200024857620002476200024e565b5b50919050565b7f4e487b7100000000000000000000000000000000000000000000000000000000600052602260045260246000fd5b61146e806200028d6000396000f3fe608060405234801561001057600080fd5b50600436106100ea5760003560e01c806385e8e7a71161008c578063b8397d0811610066578063b8397d081461023e578063be1e9f3e1461025c578063df9721631461027c578063eccf1f101461029a576100ea565b806385e8e7a7146101e6578063973918ce14610204578063a638580314610222576100ea565b80634cd08d03116100c85780634cd08d031461015e5780635571f59f1461017a5780635b57014c146101aa578063775a1d8f146101c8576100ea565b806301243fce146100ef57806330e7a79c1461010d57806337f91f231461012b575b600080fd5b6100f76102ba565b60405161010491906110c7565b60405180910390f35b610115610348565b60405161012291906110c7565b60405180910390f35b61014560048036038101906101409190610d2d565b6103da565b604051610155949392919061107b565b60405180910390f35b61017860048036038101906101739190610d97565b61049f565b005b610194600480360381019061018f9190610d56565b610618565b6040516101a19190611030565b60405180910390f35b6101b2610664565b6040516101bf91906110c7565b60405180910390f35b6101d06106f2565b6040516101dd91906111b5565b60405180910390f35b6101ee6106f8565b6040516101fb91906110c7565b60405180910390f35b61020c610786565b60405161021991906111b5565b60405180910390f35b61023c60048036038101906102379190610e2e565b61078c565b005b610246610991565b60405161025391906110c7565b60405180910390f35b610264610a1f565b604051610273939291906110e9565b60405180910390f35b610284610bd9565b60405161029191906111b5565b60405180910390f35b6102a2610bdf565b6040516102b1939291906111d0565b60405180910390f35b600280546102c7906112f1565b80601f01602080910402602001604051908101604052809291908181526020018280546102f3906112f1565b80156103405780601f1061031557610100808354040283529160200191610340565b820191906000526020600020905b81548152906001019060200180831161032357829003601f168201915b505050505081565b606060018054610357906112f1565b80601f0160208091040260200160405190810160405280929190818152602001828054610383906112f1565b80156103d05780601f106103a5576101008083540402835291602001916103d0565b820191906000526020600020905b8154815290600101906020018083116103b357829003601f168201915b5050505050905090565b6000602052806000526040600020600091509050806000015490806001018054610403906112f1565b80601f016020809104026020016040519081016040528092919081815260200182805461042f906112f1565b801561047c5780601f106104515761010080835404028352916020019161047c565b820191906000526020600020905b81548152906001019060200180831161045f57829003601f168201915b5050505050908060020154908060030160009054906101000a900460ff16905084565b6000836040516020016104b29190611019565b6040516020818303038152906040528051906020012090506000826040516020016104dd9190611019565b6040516020818303038152906040528051906020012090508060008083815260200190815260200160002060020154141561054d576040517f08c379a000000000000000000000000000000000000000000000000000000000815260040161054490611135565b60405180910390fd5b6040518060800160405280838152602001858152602001828152602001600015158152506000808381526020019081526020016000206000820151816000015560208201518160010190805190602001906105a9929190610bf8565b506040820151816002015560608201518160030160006101000a81548160ff021916908315150217905550905050807f92074e010c5aed4ec9b49b1b93d51d3bfece70148a941fb9a3eda3c72cc33cb3838660405161060992919061104b565b60405180910390a25050505050565b6000808260405160200161062c9190611019565b604051602081830303815290604052805190602001209050806000808381526020019081526020016000206002015414915050919050565b60038054610671906112f1565b80601f016020809104026020016040519081016040528092919081815260200182805461069d906112f1565b80156106ea5780601f106106bf576101008083540402835291602001916106ea565b820191906000526020600020905b8154815290600101906020018083116106cd57829003601f168201915b505050505081565b60065481565b60018054610705906112f1565b80601f0160208091040260200160405190810160405280929190818152602001828054610731906112f1565b801561077e5780601f106107535761010080835404028352916020019161077e565b820191906000526020600020905b81548152906001019060200180831161076157829003601f168201915b505050505081565b60075481565b60008260405160200161079f9190611019565b60405160208183030381529060405280519060200120905080600080838152602001908152602001600020600201541461080e576040517f08c379a000000000000000000000000000000000000000000000000000000000815260040161080590611175565b60405180910390fd5b60008082815260200190815260200160002060030160009054906101000a900460ff1615610871576040517f08c379a000000000000000000000000000000000000000000000000000000000815260040161086890611155565b60405180910390fd5b60018214806108805750600282145b8061088b5750600382145b6108ca576040517f08c379a00000000000000000000000000000000000000000000000000000000081526004016108c190611195565b60405180910390fd5b600160008083815260200190815260200160002060030160006101000a81548160ff021916908315150217905550600182141561091e576005600081548092919061091490611323565b919050555061095e565b6002821415610944576006600081548092919061093a90611323565b919050555061095d565b6007600081548092919061095790611323565b91905055505b5b81817fd10f6697fe785cf6ab300b0a28e7b2403b8742966ec5535806af5b24613611a460405160405180910390a3505050565b6004805461099e906112f1565b80601f01602080910402602001604051908101604052809291908181526020018280546109ca906112f1565b8015610a175780601f106109ec57610100808354040283529160200191610a17565b820191906000526020600020905b8154815290600101906020018083116109fa57829003601f168201915b505050505081565b6060806060600260036004828054610a36906112f1565b80601f0160208091040260200160405190810160405280929190818152602001828054610a62906112f1565b8015610aaf5780601f10610a8457610100808354040283529160200191610aaf565b820191906000526020600020905b815481529060010190602001808311610a9257829003601f168201915b50505050509250818054610ac2906112f1565b80601f0160208091040260200160405190810160405280929190818152602001828054610aee906112f1565b8015610b3b5780601f10610b1057610100808354040283529160200191610b3b565b820191906000526020600020905b815481529060010190602001808311610b1e57829003601f168201915b50505050509150808054610b4e906112f1565b80601f0160208091040260200160405190810160405280929190818152602001828054610b7a906112f1565b8015610bc75780601f10610b9c57610100808354040283529160200191610bc7565b820191906000526020600020905b815481529060010190602001808311610baa57829003601f168201915b50505050509050925092509250909192565b60055481565b6000806000600554600654600754925092509250909192565b828054610c04906112f1565b90600052602060002090601f016020900481019282610c265760008555610c6d565b82601f10610c3f57805160ff1916838001178555610c6d565b82800160010185558215610c6d579182015b82811115610c6c578251825591602001919060010190610c51565b5b509050610c7a9190610c7e565b5090565b5b80821115610c97576000816000905550600101610c7f565b5090565b6000610cae610ca984611238565b611207565b905082815260208101848484011115610cc657600080fd5b610cd18482856112af565b509392505050565b600081359050610ce88161140a565b92915050565b600082601f830112610cff57600080fd5b8135610d0f848260208601610c9b565b91505092915050565b600081359050610d2781611421565b92915050565b600060208284031215610d3f57600080fd5b6000610d4d84828501610cd9565b91505092915050565b600060208284031215610d6857600080fd5b600082013567ffffffffffffffff811115610d8257600080fd5b610d8e84828501610cee565b91505092915050565b600080600060608486031215610dac57600080fd5b600084013567ffffffffffffffff811115610dc657600080fd5b610dd286828701610cee565b935050602084013567ffffffffffffffff811115610def57600080fd5b610dfb86828701610cee565b925050604084013567ffffffffffffffff811115610e1857600080fd5b610e2486828701610cee565b9150509250925092565b60008060408385031215610e4157600080fd5b600083013567ffffffffffffffff811115610e5b57600080fd5b610e6785828601610cee565b9250506020610e7885828601610d18565b9150509250929050565b610e8b8161128f565b82525050565b610e9a8161129b565b82525050565b6000610eab82611268565b610eb58185611273565b9350610ec58185602086016112be565b610ece816113f9565b840191505092915050565b6000610ee482611268565b610eee8185611284565b9350610efe8185602086016112be565b80840191505092915050565b6000610f17601983611273565b91507f566f74657220616c726561647920726567697374657265642e000000000000006000830152602082019050919050565b6000610f57601883611273565b91507f566f7465722068617320616c726561647920766f7465642e00000000000000006000830152602082019050919050565b6000610f97601583611273565b91507f566f746572206e6f7420726567697374657265642e00000000000000000000006000830152602082019050919050565b6000610fd7601283611273565b91507f496e76616c69642063616e6469646174652e00000000000000000000000000006000830152602082019050919050565b611013816112a5565b82525050565b60006110258284610ed9565b915081905092915050565b60006020820190506110456000830184610e82565b92915050565b60006040820190506110606000830185610e91565b81810360208301526110728184610ea0565b90509392505050565b60006080820190506110906000830187610e91565b81810360208301526110a28186610ea0565b90506110b16040830185610e91565b6110be6060830184610e82565b95945050505050565b600060208201905081810360008301526110e18184610ea0565b905092915050565b600060608201905081810360008301526111038186610ea0565b905081810360208301526111178185610ea0565b9050818103604083015261112b8184610ea0565b9050949350505050565b6000602082019050818103600083015261114e81610f0a565b9050919050565b6000602082019050818103600083015261116e81610f4a565b9050919050565b6000602082019050818103600083015261118e81610f8a565b9050919050565b600060208201905081810360008301526111ae81610fca565b9050919050565b60006020820190506111ca600083018461100a565b92915050565b60006060820190506111e5600083018661100a565b6111f2602083018561100a565b6111ff604083018461100a565b949350505050565b6000604051905081810181811067ffffffffffffffff8211171561122e5761122d6113ca565b5b8060405250919050565b600067ffffffffffffffff821115611253576112526113ca565b5b601f19601f8301169050602081019050919050565b600081519050919050565b600082825260208201905092915050565b600081905092915050565b60008115159050919050565b6000819050919050565b6000819050919050565b82818337600083830152505050565b60005b838110156112dc5780820151818401526020810190506112c1565b838111156112eb576000848401525b50505050565b6000600282049050600182168061130957607f821691505b6020821081141561131d5761131c61139b565b5b50919050565b600061132e826112a5565b91507fffffffffffffffffffffffffffffffffffffffffffffffffffffffffffffffff8214156113615761136061136c565b5b600182019050919050565b7f4e487b7100000000000000000000000000000000000000000000000000000000600052601160045260246000fd5b7f4e487b7100000000000000000000000000000000000000000000000000000000600052602260045260246000fd5b7f4e487b7100000000000000000000000000000000000000000000000000000000600052604160045260246000fd5b6000601f19601f8301169050919050565b6114138161129b565b811461141e57600080fd5b50565b61142a816112a5565b811461143557600080fd5b5056fea2646970667358221220f9ed244c9287ffa053d30b85526dbc59aa2cb6a678645cda315f8151930bdafb64736f6c63430008000033",
  "immutableReferences": {},
  "source": "// SPDX-License-Identifier: MIT\r\npragma solidity ^0.8.0;\r\n\r\ncontract Voting {\r\n    struct Voter {\r\n        bytes32 name;\r\n        string dateOfBirth;\r\n        bytes32 ssn;\r\n        bool hasVoted;\r\n    }\r\n\r\n    mapping(bytes32 => Voter) public voters;\r\n    string public electionName;\r\n    string public candidate1;\r\n    string public candidate2;\r\n    string public candidate3;\r\n    uint public candidate1Votes;\r\n    uint public candidate2Votes;\r\n    uint public candidate3Votes;\r\n\r\n    event VoterRegistered(\r\n        bytes32 indexed ssn,\r\n        bytes32 name,\r\n        string dateOfBirth\r\n    );\r\n\r\n    event VoteCast(bytes32 indexed ssn, uint indexed optionIndex);\r\n    event ElectionEnded(bytes32 indexed electionID);\r\n\r\n    constructor() {\r\n        electionName = \"Example Election\";\r\n        candidate1 = \"Candidate A\";\r\n        candidate2 = \"Candidate B\";\r\n        candidate3 = \"Candidate C\";\r\n\r\n        candidate1Votes = 0;\r\n        candidate2Votes = 0;\r\n        candidate3Votes = 0;\r\n    }\r\n\r\n    function register(\r\n        string memory _name,\r\n        string memory _dateOfBirth,\r\n        string memory _ssn\r\n    ) public {\r\n        bytes32 hashedName = keccak256(abi.encodePacked(_name));\r\n        bytes32 hashedSSN = keccak256(abi.encodePacked(_ssn));\r\n        require(\r\n            voters[hashedSSN].ssn != hashedSSN,\r\n            \"Voter already registered.\"\r\n        );\r\n        voters[hashedSSN] = Voter(hashedName, _dateOfBirth, hashedSSN, false);\r\n        emit VoterRegistered(hashedSSN, hashedName, _dateOfBirth);\r\n    }\r\n\r\n    function vote(string memory _ssn, uint _optionIndex) public {\r\n        bytes32 hashedSSN = keccak256(abi.encodePacked(_ssn));\r\n        require(voters[hashedSSN].ssn == hashedSSN, \"Voter not registered.\");\r\n        require(!voters[hashedSSN].hasVoted, \"Voter has already voted.\");\r\n        require(\r\n            _optionIndex == 1 || _optionIndex == 2 || _optionIndex == 3,\r\n            \"Invalid candidate.\"\r\n        );\r\n        voters[hashedSSN].hasVoted = true;\r\n        if (_optionIndex == 1) {\r\n            candidate1Votes++;\r\n        } else if (_optionIndex == 2) {\r\n            candidate2Votes++;\r\n        } else {\r\n            candidate3Votes++;\r\n        }\r\n        emit VoteCast(hashedSSN, _optionIndex);\r\n    }\r\n\r\n    function getElectionResults() public view returns (uint, uint, uint) {\r\n        return (candidate1Votes, candidate2Votes, candidate3Votes);\r\n    }\r\n\r\n    function getElectionCandidates()\r\n        public\r\n        view\r\n        returns (string memory, string memory, string memory)\r\n    {\r\n        return (candidate1, candidate2, candidate3);\r\n    }\r\n\r\n    function hasRegistered(string memory _ssn) public view returns (bool) {\r\n        bytes32 hashedSSN = keccak256(abi.encodePacked(_ssn));\r\n        return voters[hashedSSN].ssn == hashedSSN;\r\n    }\r\n\r\n    function getElectionName() public view returns (string memory) {\r\n        return electionName;\r\n    }\r\n}\r\n",
  "sourcePath": "C:\\Users\\Roy\\Desktop\\cos471FinalProject\\truffleproject\\contracts\\Voting.sol",
  "compiler": {
    "name": "solc",
    "version": "0.8.0+commit.c7dfd78e.Emscripten.clang"
  },
  "schemaVersion": "3.4.13",
  "updatedAt": "2023-05-08T05:15:10.039Z",
  "networkType": "ethereum",
  "devdoc": {
    "kind": "dev",
    "methods": {},
    "version": 1
  },
  "userdoc": {
    "kind": "user",
    "methods": {},
    "version": 1
  }
}