{
  "contractName": "Voting",
  "abi": [
    {
      "anonymous": false,
      "inputs": [
        {
          "indexed": true,
          "internalType": "bytes32",
          "name": "electionID",
          "type": "bytes32"
        },
        {
          "indexed": false,
          "internalType": "string",
          "name": "name",
          "type": "string"
        },
        {
          "indexed": false,
          "internalType": "string[]",
          "name": "options",
          "type": "string[]"
        }
      ],
      "name": "ElectionCreated",
      "type": "event"
    },
    {
      "anonymous": false,
      "inputs": [
        {
          "indexed": true,
          "internalType": "bytes32",
          "name": "electionID",
          "type": "bytes32"
        }
      ],
      "name": "ElectionEnded",
      "type": "event"
    },
    {
      "anonymous": false,
      "inputs": [
        {
          "indexed": true,
          "internalType": "bytes32",
          "name": "ssn",
          "type": "bytes32"
        },
        {
          "indexed": true,
          "internalType": "bytes32",
          "name": "electionID",
          "type": "bytes32"
        },
        {
          "indexed": true,
          "internalType": "uint256",
          "name": "optionIndex",
          "type": "uint256"
        }
      ],
      "name": "VoteCast",
      "type": "event"
    },
    {
      "anonymous": false,
      "inputs": [
        {
          "indexed": true,
          "internalType": "bytes32",
          "name": "ssn",
          "type": "bytes32"
        },
        {
          "indexed": false,
          "internalType": "bytes32",
          "name": "name",
          "type": "bytes32"
        },
        {
          "indexed": false,
          "internalType": "string",
          "name": "dateOfBirth",
          "type": "string"
        }
      ],
      "name": "VoterRegistered",
      "type": "event"
    },
    {
      "inputs": [
        {
          "internalType": "bytes32",
          "name": "",
          "type": "bytes32"
        }
      ],
      "name": "elections",
      "outputs": [
        {
          "internalType": "string",
          "name": "name",
          "type": "string"
        },
        {
          "internalType": "bool",
          "name": "active",
          "type": "bool"
        }
      ],
      "stateMutability": "view",
      "type": "function",
      "constant": true
    },
    {
      "inputs": [
        {
          "internalType": "bytes32",
          "name": "",
          "type": "bytes32"
        }
      ],
      "name": "voters",
      "outputs": [
        {
          "internalType": "bytes32",
          "name": "name",
          "type": "bytes32"
        },
        {
          "internalType": "string",
          "name": "dateOfBirth",
          "type": "string"
        },
        {
          "internalType": "bytes32",
          "name": "ssn",
          "type": "bytes32"
        },
        {
          "internalType": "address",
          "name": "addr",
          "type": "address"
        },
        {
          "internalType": "bool",
          "name": "hasVoted",
          "type": "bool"
        }
      ],
      "stateMutability": "view",
      "type": "function",
      "constant": true
    },
    {
      "inputs": [
        {
          "internalType": "string",
          "name": "_name",
          "type": "string"
        },
        {
          "internalType": "string",
          "name": "_dateOfBirth",
          "type": "string"
        },
        {
          "internalType": "string",
          "name": "_ssn",
          "type": "string"
        },
        {
          "internalType": "address",
          "name": "addr",
          "type": "address"
        }
      ],
      "name": "register",
      "outputs": [],
      "stateMutability": "nonpayable",
      "type": "function"
    },
    {
      "inputs": [
        {
          "internalType": "string",
          "name": "_ssn",
          "type": "string"
        },
        {
          "internalType": "bytes32",
          "name": "_electionID",
          "type": "bytes32"
        },
        {
          "internalType": "uint256",
          "name": "_optionIndex",
          "type": "uint256"
        }
      ],
      "name": "vote",
      "outputs": [],
      "stateMutability": "nonpayable",
      "type": "function"
    },
    {
      "inputs": [
        {
          "internalType": "string",
          "name": "_name",
          "type": "string"
        },
        {
          "internalType": "string[]",
          "name": "_options",
          "type": "string[]"
        }
      ],
      "name": "createElection",
      "outputs": [
        {
          "internalType": "bytes32",
          "name": "",
          "type": "bytes32"
        }
      ],
      "stateMutability": "nonpayable",
      "type": "function"
    },
    {
      "inputs": [
        {
          "internalType": "bytes32",
          "name": "_electionID",
          "type": "bytes32"
        }
      ],
      "name": "endElection",
      "outputs": [],
      "stateMutability": "nonpayable",
      "type": "function"
    },
    {
      "inputs": [
        {
          "internalType": "bytes32",
          "name": "_electionID",
          "type": "bytes32"
        }
      ],
      "name": "getElectionResults",
      "outputs": [
        {
          "internalType": "uint256[]",
          "name": "",
          "type": "uint256[]"
        }
      ],
      "stateMutability": "view",
      "type": "function",
      "constant": true
    }
  ],
  "bytecode": "0x608060405234801561001057600080fd5b506118e0806100206000396000f3fe608060405234801561001057600080fd5b506004361061007d5760003560e01c806337f91f231161005b57806337f91f23146100ff578063703a4d7614610133578063afd7fe591461014f578063e1f5b7cd1461016b5761007d565b806305ab39b714610082578063198d0ec3146100b3578063349813b2146100cf575b600080fd5b61009c60048036038101906100979190610dce565b61019b565b6040516100aa929190611467565b60405180910390f35b6100cd60048036038101906100c89190610dce565b610254565b005b6100e960048036038101906100e49190610df7565b610316565b6040516100f6919061138b565b60405180910390f35b61011960048036038101906101149190610dce565b61048e565b60405161012a9594939291906113d6565b60405180910390f35b61014d60048036038101906101489190610e63565b610579565b005b61016960048036038101906101649190610eca565b6107bc565b005b61018560048036038101906101809190610dce565b610999565b6040516101929190611369565b60405180910390f35b60016020528060005260406000206000915090508060000180546101be90611742565b80601f01602080910402602001604051908101604052809291908181526020018280546101ea90611742565b80156102375780601f1061020c57610100808354040283529160200191610237565b820191906000526020600020905b81548152906001019060200180831161021a57829003601f168201915b5050505050908060030160009054906101000a900460ff16905082565b6001600082815260200190815260200160002060030160009054906101000a900460ff166102b7576040517f08c379a00000000000000000000000000000000000000000000000000000000081526004016102ae906114f7565b60405180910390fd5b60006001600083815260200190815260200160002060030160006101000a81548160ff021916908315150217905550807f5797e235d3462e48da00407d12f8572870954c57d09b3b3c232fb5771bcb95b460405160405180910390a250565b600080834260405160200161032c929190611341565b6040516020818303038152906040528051906020012090506001600082815260200190815260200160002060030160009054906101000a900460ff16156103a8576040517f08c379a000000000000000000000000000000000000000000000000000000000815260040161039f90611497565b60405180910390fd5b6000600160008381526020019081526020016000209050848160000190805190602001906103d7929190610b39565b50838160010190805190602001906103f0929190610bbf565b5060005b845181101561042b57600082600201600083815260200190815260200160002081905550808061042390611774565b9150506103f4565b5060018160030160006101000a81548160ff021916908315150217905550817fa49a19e3aada34f2091e3e562343027fab203c4764c23fadd56e8c9c9546eddf868660405161047b929190611430565b60405180910390a2819250505092915050565b60006020528060005260406000206000915090508060000154908060010180546104b790611742565b80601f01602080910402602001604051908101604052809291908181526020018280546104e390611742565b80156105305780601f1061050557610100808354040283529160200191610530565b820191906000526020600020905b81548152906001019060200180831161051357829003601f168201915b5050505050908060020154908060030160009054906101000a900473ffffffffffffffffffffffffffffffffffffffff16908060030160149054906101000a900460ff16905085565b60008360405160200161058c919061132a565b6040516020818303038152906040528051906020012090508060008083815260200190815260200160002060020154146105fb576040517f08c379a00000000000000000000000000000000000000000000000000000000081526004016105f290611537565b60405180910390fd5b60008082815260200190815260200160002060030160149054906101000a900460ff161561065e576040517f08c379a000000000000000000000000000000000000000000000000000000000815260040161065590611517565b60405180910390fd5b6001600084815260200190815260200160002060030160009054906101000a900460ff166106c1576040517f08c379a00000000000000000000000000000000000000000000000000000000081526004016106b8906114f7565b60405180910390fd5b6001600084815260200190815260200160002060010180549050821061071c576040517f08c379a0000000000000000000000000000000000000000000000000000000008152600401610713906114d7565b60405180910390fd5b600160008083815260200190815260200160002060030160146101000a81548160ff021916908315150217905550600160008481526020019081526020016000206002016000838152602001908152602001600020600081548092919061078290611774565b91905055508183827f919eceba3fe9820b9f6872f6e55d4231cf6b10fc2491fe2e8e3f584d813c4c3f60405160405180910390a450505050565b6000846040516020016107cf919061132a565b6040516020818303038152906040528051906020012090506000836040516020016107fa919061132a565b6040516020818303038152906040528051906020012090508060008083815260200190815260200160002060020154141561086a576040517f08c379a0000000000000000000000000000000000000000000000000000000008152600401610861906114b7565b60405180910390fd5b6040518060a001604052808381526020018681526020018281526020018473ffffffffffffffffffffffffffffffffffffffff168152602001600015158152506000808381526020019081526020016000206000820151816000015560208201518160010190805190602001906108e2929190610b39565b506040820151816002015560608201518160030160006101000a81548173ffffffffffffffffffffffffffffffffffffffff021916908373ffffffffffffffffffffffffffffffffffffffff16021790555060808201518160030160146101000a81548160ff021916908315150217905550905050807f92074e010c5aed4ec9b49b1b93d51d3bfece70148a941fb9a3eda3c72cc33cb383876040516109899291906113a6565b60405180910390a2505050505050565b60606001600083815260200190815260200160002060030160009054906101000a900460ff16156109ff576040517f08c379a00000000000000000000000000000000000000000000000000000000081526004016109f690611557565b60405180910390fd5b6000600160008481526020019081526020016000206001018054905067ffffffffffffffff811115610a5a577f4e487b7100000000000000000000000000000000000000000000000000000000600052604160045260246000fd5b604051908082528060200260200182016040528015610a885781602001602082028036833780820191505090505b50905060005b6001600085815260200190815260200160002060010180549050811015610b2f5760016000858152602001908152602001600020600201600082815260200190815260200160002054828281518110610b10577f4e487b7100000000000000000000000000000000000000000000000000000000600052603260045260246000fd5b6020026020010181815250508080610b2790611774565b915050610a8e565b5080915050919050565b828054610b4590611742565b90600052602060002090601f016020900481019282610b675760008555610bae565b82601f10610b8057805160ff1916838001178555610bae565b82800160010185558215610bae579182015b82811115610bad578251825591602001919060010190610b92565b5b509050610bbb9190610c1f565b5090565b828054828255906000526020600020908101928215610c0e579160200282015b82811115610c0d578251829080519060200190610bfd929190610b39565b5091602001919060010190610bdf565b5b509050610c1b9190610c3c565b5090565b5b80821115610c38576000816000905550600101610c20565b5090565b5b80821115610c5c5760008181610c539190610c60565b50600101610c3d565b5090565b508054610c6c90611742565b6000825580601f10610c7e5750610c9d565b601f016020900490600052602060002090810190610c9c9190610c1f565b5b50565b6000610cb3610cae846115a8565b611577565b9050808382526020820190508260005b85811015610cf35781358501610cd98882610d8f565b845260208401935060208301925050600181019050610cc3565b5050509392505050565b6000610d10610d0b846115d4565b611577565b905082815260208101848484011115610d2857600080fd5b610d33848285611700565b509392505050565b600081359050610d4a81611865565b92915050565b600082601f830112610d6157600080fd5b8135610d71848260208601610ca0565b91505092915050565b600081359050610d898161187c565b92915050565b600082601f830112610da057600080fd5b8135610db0848260208601610cfd565b91505092915050565b600081359050610dc881611893565b92915050565b600060208284031215610de057600080fd5b6000610dee84828501610d7a565b91505092915050565b60008060408385031215610e0a57600080fd5b600083013567ffffffffffffffff811115610e2457600080fd5b610e3085828601610d8f565b925050602083013567ffffffffffffffff811115610e4d57600080fd5b610e5985828601610d50565b9150509250929050565b600080600060608486031215610e7857600080fd5b600084013567ffffffffffffffff811115610e9257600080fd5b610e9e86828701610d8f565b9350506020610eaf86828701610d7a565b9250506040610ec086828701610db9565b9150509250925092565b60008060008060808587031215610ee057600080fd5b600085013567ffffffffffffffff811115610efa57600080fd5b610f0687828801610d8f565b945050602085013567ffffffffffffffff811115610f2357600080fd5b610f2f87828801610d8f565b935050604085013567ffffffffffffffff811115610f4c57600080fd5b610f5887828801610d8f565b9250506060610f6987828801610d3b565b91505092959194509250565b6000610f8183836110a1565b905092915050565b6000610f958383611304565b60208301905092915050565b610faa816116ae565b82525050565b6000610fbb82611624565b610fc5818561165f565b935083602082028501610fd785611604565b8060005b858110156110135784840389528151610ff48582610f75565b9450610fff83611645565b925060208a01995050600181019050610fdb565b50829750879550505050505092915050565b60006110308261162f565b61103a8185611670565b935061104583611614565b8060005b8381101561107657815161105d8882610f89565b975061106883611652565b925050600181019050611049565b5085935050505092915050565b61108c816116c0565b82525050565b61109b816116cc565b82525050565b60006110ac8261163a565b6110b68185611681565b93506110c681856020860161170f565b6110cf81611854565b840191505092915050565b60006110e58261163a565b6110ef8185611692565b93506110ff81856020860161170f565b61110881611854565b840191505092915050565b600061111e8261163a565b61112881856116a3565b935061113881856020860161170f565b80840191505092915050565b6000611151601883611692565b91507f456c656374696f6e20616c7265616479206578697374732e00000000000000006000830152602082019050919050565b6000611191601983611692565b91507f566f74657220616c726561647920726567697374657265642e000000000000006000830152602082019050919050565b60006111d1601583611692565b91507f496e76616c6964206f7074696f6e20696e6465782e00000000000000000000006000830152602082019050919050565b6000611211601783611692565b91507f456c656374696f6e206973206e6f74206163746976652e0000000000000000006000830152602082019050919050565b6000611251601883611692565b91507f566f7465722068617320616c726561647920766f7465642e00000000000000006000830152602082019050919050565b6000611291601583611692565b91507f566f746572206e6f7420726567697374657265642e00000000000000000000006000830152602082019050919050565b60006112d1601983611692565b91507f456c656374696f6e206973207374696c6c206163746976652e000000000000006000830152602082019050919050565b61130d816116f6565b82525050565b61132461131f826116f6565b6117bd565b82525050565b60006113368284611113565b915081905092915050565b600061134d8285611113565b91506113598284611313565b6020820191508190509392505050565b600060208201905081810360008301526113838184611025565b905092915050565b60006020820190506113a06000830184611092565b92915050565b60006040820190506113bb6000830185611092565b81810360208301526113cd81846110da565b90509392505050565b600060a0820190506113eb6000830188611092565b81810360208301526113fd81876110da565b905061140c6040830186611092565b6114196060830185610fa1565b6114266080830184611083565b9695505050505050565b6000604082019050818103600083015261144a81856110da565b9050818103602083015261145e8184610fb0565b90509392505050565b6000604082019050818103600083015261148181856110da565b90506114906020830184611083565b9392505050565b600060208201905081810360008301526114b081611144565b9050919050565b600060208201905081810360008301526114d081611184565b9050919050565b600060208201905081810360008301526114f0816111c4565b9050919050565b6000602082019050818103600083015261151081611204565b9050919050565b6000602082019050818103600083015261153081611244565b9050919050565b6000602082019050818103600083015261155081611284565b9050919050565b60006020820190508181036000830152611570816112c4565b9050919050565b6000604051905081810181811067ffffffffffffffff8211171561159e5761159d611825565b5b8060405250919050565b600067ffffffffffffffff8211156115c3576115c2611825565b5b602082029050602081019050919050565b600067ffffffffffffffff8211156115ef576115ee611825565b5b601f19601f8301169050602081019050919050565b6000819050602082019050919050565b6000819050602082019050919050565b600081519050919050565b600081519050919050565b600081519050919050565b6000602082019050919050565b6000602082019050919050565b600082825260208201905092915050565b600082825260208201905092915050565b600082825260208201905092915050565b600082825260208201905092915050565b600081905092915050565b60006116b9826116d6565b9050919050565b60008115159050919050565b6000819050919050565b600073ffffffffffffffffffffffffffffffffffffffff82169050919050565b6000819050919050565b82818337600083830152505050565b60005b8381101561172d578082015181840152602081019050611712565b8381111561173c576000848401525b50505050565b6000600282049050600182168061175a57607f821691505b6020821081141561176e5761176d6117f6565b5b50919050565b600061177f826116f6565b91507fffffffffffffffffffffffffffffffffffffffffffffffffffffffffffffffff8214156117b2576117b16117c7565b5b600182019050919050565b6000819050919050565b7f4e487b7100000000000000000000000000000000000000000000000000000000600052601160045260246000fd5b7f4e487b7100000000000000000000000000000000000000000000000000000000600052602260045260246000fd5b7f4e487b7100000000000000000000000000000000000000000000000000000000600052604160045260246000fd5b6000601f19601f8301169050919050565b61186e816116ae565b811461187957600080fd5b50565b611885816116cc565b811461189057600080fd5b50565b61189c816116f6565b81146118a757600080fd5b5056fea2646970667358221220ffa0c32f803facb57a0b80f148f083a808f80dd569aa4815436d5a88e740b4d464736f6c63430008000033",
  "immutableReferences": {},
  "source": "// SPDX-License-Identifier: MIT\r\npragma solidity ^0.8.0;\r\n\r\ncontract Voting {\r\n    struct Voter {\r\n        bytes32 name;\r\n        string dateOfBirth;\r\n        bytes32 ssn;\r\n        address addr;\r\n        bool hasVoted;\r\n    }\r\n\r\n    struct electionA {\r\n        string name;\r\n        string[] candidates;\r\n        mapping(uint => uint) voteCounts;\r\n        bool active;\r\n    }\r\n\r\n    mapping(bytes32 => Voter) public voters;\r\n    mapping(bytes32 => electionA) public elections;\r\n\r\n    event VoterRegistered(\r\n        bytes32 indexed ssn,\r\n        bytes32 name,\r\n        string dateOfBirth\r\n    );\r\n    event VoteCast(\r\n        bytes32 indexed ssn,\r\n        bytes32 indexed electionID,\r\n        uint indexed optionIndex\r\n    );\r\n    event ElectionCreated(\r\n        bytes32 indexed electionID,\r\n        string name,\r\n        string[] options\r\n    );\r\n    event ElectionEnded(bytes32 indexed electionID);\r\n\r\n    function register(\r\n        string memory _name,\r\n        string memory _dateOfBirth,\r\n        string memory _ssn,\r\n        address addr\r\n    ) public {\r\n        bytes32 hashedName = keccak256(abi.encodePacked(_name));\r\n        bytes32 hashedSSN = keccak256(abi.encodePacked(_ssn));\r\n        require(\r\n            voters[hashedSSN].ssn != hashedSSN,\r\n            \"Voter already registered.\"\r\n        );\r\n        voters[hashedSSN] = Voter(\r\n            hashedName,\r\n            _dateOfBirth,\r\n            hashedSSN,\r\n            addr,\r\n            false\r\n        );\r\n        emit VoterRegistered(hashedSSN, hashedName, _dateOfBirth);\r\n    }\r\n\r\n    function vote(\r\n        string memory _ssn,\r\n        bytes32 _electionID,\r\n        uint _optionIndex\r\n    ) public {\r\n        bytes32 hashedSSN = keccak256(abi.encodePacked(_ssn));\r\n        require(voters[hashedSSN].ssn == hashedSSN, \"Voter not registered.\");\r\n        require(!voters[hashedSSN].hasVoted, \"Voter has already voted.\");\r\n        require(elections[_electionID].active, \"Election is not active.\");\r\n        require(\r\n            _optionIndex < elections[_electionID].candidates.length,\r\n            \"Invalid option index.\"\r\n        );\r\n        voters[hashedSSN].hasVoted = true;\r\n        elections[_electionID].voteCounts[_optionIndex]++;\r\n        emit VoteCast(hashedSSN, _electionID, _optionIndex);\r\n    }\r\n\r\n    function createElection(\r\n        string memory _name,\r\n        string[] memory _options\r\n    ) public returns (bytes32) {\r\n        bytes32 electionID = keccak256(\r\n            abi.encodePacked(_name, block.timestamp)\r\n        );\r\n        require(!elections[electionID].active, \"Election already exists.\");\r\n        electionA storage newElection = elections[electionID];\r\n        newElection.name = _name;\r\n        newElection.candidates = _options;\r\n        for (uint i = 0; i < _options.length; i++) {\r\n            newElection.voteCounts[i] = 0;\r\n        }\r\n        newElection.active = true;\r\n        emit ElectionCreated(electionID, _name, _options);\r\n        return electionID;\r\n    }\r\n\r\n    function endElection(bytes32 _electionID) public {\r\n        require(elections[_electionID].active, \"Election is not active.\");\r\n        elections[_electionID].active = false;\r\n        emit ElectionEnded(_electionID);\r\n    }\r\n\r\n    function getElectionResults(\r\n        bytes32 _electionID\r\n    ) public view returns (uint[] memory) {\r\n        require(!elections[_electionID].active, \"Election is still active.\");\r\n        uint[] memory results = new uint[](\r\n            elections[_electionID].candidates.length\r\n        );\r\n        for (uint i = 0; i < elections[_electionID].candidates.length; i++) {\r\n            results[i] = elections[_electionID].voteCounts[i];\r\n        }\r\n        return results;\r\n    }\r\n}\r\n",
  "sourcePath": "C:\\Users\\Roy\\Desktop\\cos471FinalProject\\truffleproject\\contracts\\Voting.sol",
  "compiler": {
    "name": "solc",
    "version": "0.8.0+commit.c7dfd78e.Emscripten.clang"
  },
  "schemaVersion": "3.4.13",
  "updatedAt": "2023-05-07T19:31:49.117Z",
  "networkType": "ethereum",
  "devdoc": {
    "kind": "dev",
    "methods": {},
    "version": 1
  },
  "userdoc": {
    "kind": "user",
    "methods": {},
    "version": 1
  }
}